:020000040800F2
:10000000000001202D0B0008690A00086F0A000893
:10001000750A00087B0A0008810A00080000000039
:10002000000000000000000000000000870A000837
:10003000950A000800000000A30A0008B10A0008A1
:100040007D0B00087D0B00087D0B00087D0B000870
:100050007D0B00087D0B00087D0B00087D0B000860
:100060007D0B00087D0B00087D0B00087D0B000850
:100070007D0B00087D0B00087D0B00087D0B000840
:100080007D0B00087D0B00087D0B000800000000C0
:100090000000000000000000000000007D0B0008D0
:1000A0007D0B00087D0B00087D0B00087D0B000810
:1000B000BD0A0008D10A0008E50A00087D0B000807
:1000C0007D0B00087D0B00087D0B00087D0B0008F0
:1000D0007D0B00087D0B00087D0B00080000000070
:1000E000F90A00087D0B00087D0B000800000000E5
:1000F0000000000000000000000000007D0B000870
:10010000000000007D0B00087D0B00087D0B00083F
:1001100000000000000000000000000000000000DF
:100120007D0B00087D0B00087D0B00087D0B00088F
:100130007D0B00080000000000000000000000002F
:100140000000000000000000000000007D0B00081F
:100150007D0B00087D0B00087D0B00087D0B00085F
:100160007D0B00087D0B000800000000000000006F
:10017000000000000000000000000000000000007F
:10018000000000007D0B00080000000000000000DF
:040190007D0B0008DB
:1001940010B5054C237833B9044B13B10448AFF3BD
:1001A40000800123237010BD0C000020000000001B
:1001B4009C23000808B5034B1BB103490348AFF364
:1001C400008008BD00000000100000209C230008EF
:1001D40053B94AB9002908BF00281CBF4FF0FF31AA
:1001E4004FF0FF3000F074B9ADF1080C6DE904CEA6
:1001F40000F006F8DDF804E0DDE9022304B07047FE
:100204002DE9F047089D04468E46002B4DD18A42C5
:10021400944669D9B2FA82F252B101FA02F3C2F1F8
:10022400200120FA01F10CFA02FC41EA030E944089
:100234004FEA1C48210CBEFBF8F61FFA8CF708FBAA
:1002440016E341EA034306FB07F199420AD91CEB82
:10025400030306F1FF3080F01F81994240F21C81B4
:10026400023E63445B1AA4B2B3FBF8F008FB1033FC
:1002740044EA034400FB07F7A7420AD91CEB040431
:1002840000F1FF3380F00A81A74240F20781644401
:10029400023840EA0640E41B00261DB1D440002386
:1002A400C5E900433146BDE8F0878B4209D9002DEA
:1002B40000F0EF800026C5E9000130463146BDE874
:1002C400F087B3FA83F6002E4AD18B4202D38242DE
:1002D40000F2F980841A61EB030301209E46002D8D
:1002E400E0D0C5E9004EDDE702B9FFDEB2FA82F2E2
:1002F400002A40F09280A1EB0C014FEA1C471FFA40
:100304008CFE0126200CB1FBF7F307FB131140EA26
:1003140001410EFB03F0884208D91CEB010103F1F3
:10032400FF3802D2884200F2CB804346091AA4B2B5
:10033400B1FBF7F007FB101144EA01440EFB00FE89
:10034400A64508D91CEB040400F1FF3102D2A645EE
:1003540000F2BB800846A4EB0E0440EA03409CE78D
:10036400C6F12007B34022FA07FC4CEA030C20FA3A
:1003740007F401FA06F31C43F9404FEA1C4900FA5A
:1003840006F3B1FBF9F8200C1FFA8CFE09FB1811D7
:1003940040EA014108FB0EF0884202FA06F20BD94A
:1003A4001CEB010108F1FF3A80F08880884240F29A
:1003B4008580A8F102086144091AA4B2B1FBF9F0DE
:1003C40009FB101144EA014100FB0EFE8E4508D9D9
:1003D4001CEB010100F1FF346CD28E456AD902385E
:1003E400614440EA0840A0FB0294A1EB0E01A14243
:1003F400C846A64656D353D05DB1B3EB080261EBB1
:100404000E0101FA07F722FA06F3F1401F43C5E98A
:10041400007100263146BDE8F087C2F12003D840C0
:100424000CFA02FC21FA03F3914001434FEA1C4702
:100434001FFA8CFEB3FBF7F007FB10360B0C43EAF4
:10044400064300FB0EF69E4204FA02F408D91CEBA4
:10045400030300F1FF382FD29E422DD902386344A2
:100464009B1B89B2B3FBF7F607FB163341EA034142
:1004740006FB0EF38B4208D91CEB010106F1FF3891
:1004840016D28B4214D9023E6144C91A46EA004688
:1004940038E72E46284605E70646E3E61846F8E61A
:1004A4004B45A9D2B9EB020864EB0C0E0138A3E763
:1004B4004646EAE7204694E74046D1E7D0467BE744
:1004C400023B614432E7304609E76444023842E7BC
:1004D400704700BF80B500AF00F050FB00F026F875
:1004E40000F090F900F0A6F800F0F0F800F03CF904
:1004F40000F07CF8094801F02DFB094801F02AFBC3
:10050400084801F027FB4FF48061074800F07BFEA8
:100514004FF4FA7000F0A4FBF5E700BF28000020B8
:1005240070000020B80000200000024080B594B0A4
:1005340000AF07F1200330220021184601F024FF08
:1005440007F10C0300221A605A609A60DA601A619B
:100554000023BB60234B1B6C224A43F0805313647B
:10056400204B1B6C03F08053BB60BB6800237B6093
:100574001D4B1B6823F440431B4A43F400431360A0
:10058400194B1B6803F440437B607B6802233B6286
:100594000123FB6210233B630023BB6307F12003A9
:1005A400184600F063FE0346002B01D000F0E0F98A
:1005B4000F23FB6000233B6100237B610023BB61AD
:1005C4000023FB6107F10C030021184601F0C6F873
:1005D4000346002B01D000F0CBF900BF5037BD46D5
:1005E40080BD00BF003802400070004080B500AFFD
:1005F400002200211C2000F032FC1C2000F04BFCE7
:10060400002200211D2000F02AFC1D2000F043FCE4
:10061400002200211E2000F022FC1E2000F03BFCE2
:1006240000220021282000F01AFC282000F033FCCE
:1006340000BF80BD80B586B000AF07F1080300227B
:100644001A605A609A60DA603B4600221A605A6067
:100654001D4B4FF080421A601B4B4FF4FA525A6004
:10066400194B00229A60184BC822DA60164B0022FC
:100674001A61154B00229A61134801F01BFA0346D4
:10068400002B01D000F074F94FF48053BB6007F1E4
:10069400080319460C4801F0C7FB0346002B01D0A0
:1006A40000F066F920233B6000237B603B4619463B
:1006B400054801F0C3FD0346002B01D000F058F9B2
:1006C40000BF1837BD4680BD2800002080B586B025
:1006D40000AF07F1080300221A605A609A60DA60DA
:1006E4003B4600221A605A601D4B1E4A1A601C4B7E
:1006F4004FF4FA525A601A4B00229A60184B4FF486
:100704009672DA60164B00221A61154B00229A6128
:10071400134801F0CFF90346002B01D000F028F96B
:100724004FF48053BB6007F1080319460C4801F0ED
:100734007BFB0346002B01D000F01AF920233B6019
:1007440000237B603B461946054801F077FD0346CC
:10075400002B01D000F00CF900BF1837BD4680BD56
:10076400700000200004004080B586B000AF07F19F
:10077400080300221A605A609A60DA603B4600223D
:100784001A605A601D4B1E4A1A601C4B4FF4FA52F1
:100794005A601A4B00229A60184B6422DA60174B95
:1007A40000221A61154B00229A61144801F082F963
:1007B4000346002B01D000F0DBF84FF48053BB60FC
:1007C40007F1080319460D4801F02EFB0346002BE0
:1007D40001D000F0CDF820233B6000237B603B4632
:1007E4001946064801F02AFD0346002B01D000F00B
:1007F400BFF800BF1837BD4680BD00BFB800002059
:100804000008004080B588B000AF07F10C03002257
:100814001A605A609A60DA601A610023BB60204B48
:100824001B6B1F4A43F0020313631D4B1B6B03F046
:100834000203BB60BB6800237B60194B1B6B184A27
:1008440043F001031363164B1B6B03F001037B603E
:100854007B6800224FF41C51124800F0BBFC4FF49B
:100864008053FB604FF444133B6100237B6107F129
:100874000C0319460B4800F029FB4FF41C53FB6092
:1008840001233B6100237B610023BB6107F10C035F
:100894001946044800F01AFB00BF2037BD4680BD4E
:1008A400003802400000024080B483B000AF034629
:1008B400FB80FB88B3F5805F0ED10A4B1B78002BBD
:1008C40014BF01230023DBB283F00103DBB203F086
:1008D4000103DAB2034B1A7000BF0C37BD465DF852
:1008E400047B70470001002080B582B000AF7860BF
:1008F4007B681B68B3F1804F0BD1194B1B7883F0D5
:100904000103DBB2002B04D04FF40051154800F072
:100914007AFC7B681B68144A93420BD1104B1B78FA
:1009240083F00103DBB2002B04D04FF480710D4837
:1009340000F069FC7B681B680C4A93420BD1084B9E
:100944001B7883F00103DBB2002B04D04FF4007159
:10095400044800F058FC00BF0837BD4680BD00BF06
:100964000001002000000240000400400008004094
:1009740080B400AF72B600BFFEE7000080B483B05D
:1009840000AF00237B60104B5B6C0F4A43F4804341
:1009940053640D4B5B6C03F480437B607B680023E2
:1009A4003B60094B1B6C084A43F080531364064BAD
:1009B4001B6C03F080533B603B6800BF0C37BD46A3
:1009C4005DF8047B704700BF0038024080B487B0F4
:1009D40000AF78607B681B68B3F1804F0ED10023B1
:1009E4007B611D4B1B6C1C4A43F0010313641A4BBF
:1009F4001B6C03F001037B617B6926E07B681B6849
:100A0400164A93420ED100233B61134B1B6C124ACE
:100A140043F002031364104B1B6C03F002033B61AD
:100A24003B6912E07B681B680D4A93420DD1002399
:100A3400FB60094B1B6C084A43F004031364064B28
:100A44001B6C03F00403FB60FB6800BF1C37BD464E
:100A54005DF8047B704700BF00380240000400408A
:100A64000008004080B400AFFEE780B400AFFEE7AA
:100A740080B400AFFEE780B400AFFEE780B400AFFF
:100A8400FEE780B400AF00BFBD465DF8047B70474D
:100A940080B400AF00BFBD465DF8047B704780B4EE
:100AA40000AF00BFBD465DF8047B704780B500AF62
:100AB40000F0B6F800BF80BD80B500AF024801F079
:100AC400ABF800BF80BD00BF2800002080B500AF98
:100AD400024801F0A1F800BF80BD00BF70000020F3
:100AE40080B500AF024801F097F800BF80BD00BF99
:100AF400B800002080B500AF4FF4805000F09EFB9A
:100B040000BF80BD80B400AF064BD3F88830054ADF
:100B140043F47003C2F8883000BFBD465DF8047B1F
:100B2400704700BF00ED00E0DFF834D00D480E49F7
:100B34000E4A002302E0D458C4500433C4188C4233
:100B4400F9D30B4A0B4C002301E013600432A24298
:100B5400FBD3FFF7D7FF01F0F3FBFFF7BBFC7047B4
:100B640000000120000000200C000020D423000815
:100B74000C00002008010020FEE7000080B500AF53
:100B84000E4B1B680D4A43F4007313600B4B1B6838
:100B94000A4A43F480631360084B1B68074A43F412
:100BA40080731360032000F04FF90F2000F008F861
:100BB400FFF7E4FE0023184680BD00BF003C02405E
:100BC40080B582B000AF7860124B1A68124B1B7864
:100BD40019464FF47A73B3FBF1F3B2FBF3F31846FF
:100BE40000F067F90346002B01D001230EE07B6877
:100BF4000F2B0AD8002279684FF0FF3000F02FF94C
:100C0400064A7B681360002300E001231846083776
:100C1400BD4680BD00000020080000200400002024
:100C240080B400AF064B1B781A46064B1B6813446E
:100C3400044A136000BFBD465DF8047B704700BFE3
:100C4400080000200401002080B400AF034B1B689F
:100C54001846BD465DF8047B704700BF04010020C0
:100C640080B584B000AF7860FFF7EEFFB8607B68B2
:100C7400FB60FB68B3F1FF3F05D00A4B1B781A46B3
:100C8400FB681344FB6000BFFFF7DEFF0246BB684E
:100C9400D31AFA689A42F7D800BF00BF1037BD468E
:100CA40080BD00BF0800002080B485B000AF78602C
:100CB4007B6803F00703FB600C4BDB68BB60BA681E
:100CC4004FF6FF031340BB60FB681A02BB68134373
:100CD40043F0BF6343F40033BB60044ABB68D36092
:100CE40000BF1437BD465DF8047B704700ED00E09B
:100CF40080B400AF044BDB681B0A03F007031846FB
:100D0400BD465DF8047B704700ED00E080B483B01D
:100D140000AF0346FB7197F90730002B0BDBFB791F
:100D240003F01F02074997F907305B09012000FA15
:100D340002F241F8232000BF0C37BD465DF8047B66
:100D4400704700BF00E100E080B483B000AF034609
:100D54003960FB7197F90730002B0ADB3B68DAB284
:100D64000C4997F907301201D2B20B4483F80023DF
:100D74000AE03B68DAB20849FB7903F00F03043B4D
:100D84001201D2B20B441A7600BF0C37BD465DF88F
:100D9400047B704700E100E000ED00E080B489B01E
:100DA40000AFF860B9607A60FB6803F00703FB6189
:100DB400FB69C3F10703042B28BF0423BB61FB6950
:100DC4000433062B02D9FB69033B00E000237B615B
:100DD4004FF0FF32BB6902FA03F3DA43BB681A40EF
:100DE4007B699A404FF0FF317B6901FA03F3D943E1
:100DF4007B680B40134318462437BD465DF8047BDB
:100E04007047000080B582B000AF78607B68013B1A
:100E1400B3F1807F01D301230FE00A4A7B68013BD1
:100E240053600F214FF0FF30FFF78EFF054B002278
:100E34009A60044B07221A60002318460837BD46FF
:100E440080BD00BF10E000E080B582B000AF7860E4
:100E54007868FFF729FF00BF0837BD4680BD80B51D
:100E640086B000AF0346B9607A60FB7300237B61F0
:100E7400FFF73EFF78617A68B9687869FFF78EFFFB
:100E8400024697F90F3011461846FFF75DFF00BF81
:100E94001837BD4680BD80B582B000AF0346FB71F4
:100EA40097F907301846FFF731FF00BF0837BD46F2
:100EB40080BD80B582B000AF78607868FFF7A2FF8C
:100EC400034618460837BD4680BD000080B489B08B
:100ED40000AF7860396000237B6100233B6100230D
:100EE400BB610023FB6159E10122FB6902FA03F3B0
:100EF4007B613B681B687A6913403B613A697B6993
:100F04009A4240F048813B685B6803F00303012B7D
:100F140005D03B685B6803F00303022B30D17B6888
:100F24009B68BB61FB695B00032202FA03F3DB43AA
:100F3400BA691340BB613B68DA68FB695B0002FA7B
:100F440003F3BA691343BB617B68BA699A607B682F
:100F54005B68BB610122FB6902FA03F3DB43BA69F4
:100F64001340BB613B685B681B0903F00102FB692A
:100F740002FA03F3BA691343BB617B68BA695A6026
:100F84003B685B6803F00303032B17D07B68DB68C3
:100F9400BB61FB695B00032202FA03F3DB43BA691A
:100FA4001340BB613B689A68FB695B0002FA03F378
:100FB400BA691343BB617B68BA69DA603B685B68F2
:100FC40003F00303022B23D1FB69DA087B680832A0
:100FD40053F82230BB61FB6903F007039B000F2227
:100FE40002FA03F3DB43BA691340BB613B681A6935
:100FF400FB6903F007039B0002FA03F3BA69134386
:10100400BB61FB69DA087B680832B96943F82210CE
:101014007B681B68BB61FB695B00032202FA03F374
:10102400DB43BA691340BB613B685B6803F00302AE
:10103400FB695B0002FA03F3BA691343BB617B6883
:10104400BA691A603B685B6803F44033002B00F014
:10105400A2800023FB60574B5B6C564A43F48043E9
:101064005364544B5B6C03F48043FB60FB68524A4B
:10107400FB699B08023352F82330BB61FB6903F020
:1010840003039B000F2202FA03F3DB43BA69134004
:10109400BB617B68494A934219D07B68484A9342B2
:1010A40013D07B68474A93420DD07B68464A9342EB
:1010B40007D07B68454A934201D1042308E0072303
:1010C40006E0032304E0022302E0012300E00023FE
:1010D400FA6902F0030292009340BA691343BB61B8
:1010E4003549FB699B080233BA6941F82320384B20
:1010F4009B68BB613B69DB43BA691340BB613B68D6
:101104005B6803F48013002B03D0BA693B69134373
:10111400BB612F4ABB6993602D4BDB68BB613B69A4
:10112400DB43BA691340BB613B685B6803F400139B
:10113400002B03D0BA693B691343BB61244ABB69E2
:10114400D360234B5B68BB613B69DB43BA691340E3
:10115400BB613B685B6803F40033002B03D0BA69BE
:101164003B691343BB611A4ABB695360184B1B6844
:10117400BB613B69DB43BA691340BB613B685B6895
:1011840003F48033002B03D0BA693B691343BB617A
:101194000F4ABB691360FB690133FB61FB690F2BC9
:1011A4007FF6A2AE00BF00BF2437BD465DF8047BC6
:1011B400704700BF00380240003801400000024080
:1011C4000004024000080240000C024000100240EB
:1011D400003C014080B483B000AF78600B467B8054
:1011E40013467B707B78002B03D07A887B689A61E6
:1011F40003E07B881A047B689A6100BF0C37BD4604
:101204005DF8047B704780B485B000AF78600B460E
:101214007B807B685B69FB607A88FB6813401A04F7
:10122400FB68D9437B880B401A437B689A6100BFF3
:101234001437BD465DF8047B7047000080B582B06A
:1012440000AF0346FB80084B5A69FB881340002B10
:1012540006D0054AFB885361FB881846FFF724FB38
:1012640000BF0837BD4680BD003C014080B586B054
:1012740000AF78607B68002B01D1012367E27B68B3
:101284001B6803F00103002B75D0884B9B6803F0A7
:101294000C03042B0CD0854B9B6803F00C03082B28
:1012A40012D1824B5B6803F48003B3F5800F0BD13A
:1012B4007E4B1B6803F40033002B5BD07B685B68B8
:1012C400002B57D1012342E27B685B68B3F5803F72
:1012D40006D1764B1B68754A43F4803313601DE0D6
:1012E4007B685B68B3F5A02F0CD1704B1B686F4A09
:1012F40043F4802313606D4B1B686C4A43F48033C2
:1013040013600BE0694B1B68684A23F48033136055
:10131400664B1B68654A23F4802313607B685B6813
:10132400002B13D0FFF790FC386108E0FFF78CFC2A
:1013340002463B69D31A642B01D9032307E25B4BB2
:101344001B6803F40033002BF0D014E0FFF77CFC9F
:10135400386108E0FFF778FC02463B69D31A642B36
:1013640001D90323F3E1514B1B6803F40033002B31
:10137400F0D100E000BF7B681B6803F00203002B80
:1013840063D04A4B9B6803F00C03002B0BD0474BF4
:101394009B6803F00C03082B1CD1444B5B6803F4DB
:1013A4008003002B16D1414B1B6803F00203002B72
:1013B40005D07B68DB68012B01D00123C7E13B4BDF
:1013C4001B6823F0F8027B681B69DB003749134371
:1013D4000B603AE07B68DB68002B20D0344B0122A1
:1013E4001A60FFF731FC386108E0FFF72DFC024674
:1013F4003B69D31A022B01D90323A8E12B4B1B68A9
:1014040003F00203002BF0D0284B1B6823F0F802F2
:101414007B681B69DB00254913430B6015E0244BF3
:1014240000221A60FFF710FC386108E0FFF70CFC9B
:1014340002463B69D31A022B01D9032387E11B4BD4
:101444001B6803F00203002BF0D17B681B6803F0D8
:101454000803002B36D07B685B69002B16D0154B34
:1014640001221A60FFF7F0FB386108E0FFF7ECFB9C
:1014740002463B69D31A022B01D9032367E10B4BC4
:101484005B6F03F00203002BF0D01BE0094B00223A
:101494001A60FFF7D9FB38610EE0FFF7D5FB02466F
:1014A4003B69D31A022B07D9032350E100380240C9
:1014B40000004742800E4742884B5B6F03F00203F3
:1014C400002BEAD17B681B6803F00403002B00F0B7
:1014D40097800023FB75814B1B6C03F08053002B1A
:1014E4000FD10023BB607D4B1B6C7C4A43F08053BF
:1014F40013647A4B1B6C03F08053BB60BB680123FD
:10150400FB75774B1B6803F48073002B18D1744B65
:101514001B68734A43F480731360FFF795FB3861CB
:1015240008E0FFF791FB02463B69D31A022B01D96D
:1015340003230CE16A4B1B6803F48073002BF0D087
:101544007B689B68012B06D1644B1B6F634A43F095
:10155400010313671CE07B689B68052B0CD15F4B70
:101564001B6F5E4A43F0040313675C4B1B6F5B4ABB
:1015740043F0010313670BE0584B1B6F574A23F0EA
:1015840001031367554B1B6F544A23F0040313677D
:101594007B689B68002B15D0FFF756FB38610AE087
:1015A400FFF752FB02463B69D31A41F28832934259
:1015B40001D90323CBE0494B1B6F03F00203002B3B
:1015C400EED014E0FFF740FB38610AE0FFF73CFB84
:1015D40002463B69D31A41F28832934201D903236C
:1015E400B5E03E4B1B6F03F00203002BEED1FB7DF5
:1015F400012B05D1394B1B6C384A23F080531364FB
:101604007B689B69002B00F0A180344B9B6803F03E
:101614000C03082B5CD07B689B69022B41D1314BB6
:1016240000221A60FFF710FB386108E0FFF70CFB9B
:1016340002463B69D31A022B01D9032387E0274BC7
:101644001B6803F00073002BF0D17B68DA697B68B8
:101654001B6A1A437B685B6A9B011A437B689B6A1B
:101664005B08013B1B041A437B68DB6A1B061B49AE
:1016740013434B601B4B01221A60FFF7E5FA3861F4
:1016840008E0FFF7E1FA02463B69D31A022B01D9BD
:1016940003235CE0114B1B6803F00073002BF0D0B4
:1016A40054E0104B00221A60FFF7CEFA386108E0CC
:1016B400FFF7CAFA02463B69D31A022B01D9032366
:1016C40045E0064B1B6803F00073002BF0D13DE0AE
:1016D4007B689B69012B07D1012338E00038024065
:1016E40000700040600047421B4B5B68FB607B68F6
:1016F4009B69012B28D0FB6803F480027B68DB69BB
:101704009A4221D1FB6803F03F027B681B6A9A422C
:101714001AD1FA6847F6C07313407A68526A920184
:10172400934211D1FB6803F440327B689B6A5B08E7
:10173400013B1B049A4207D1FB6803F070627B688B
:10174400DB6A1B069A4201D0012300E000231846FD
:101754001837BD4680BD00BF0038024080B584B054
:1017640000AF786039607B68002B01D10123CCE0A5
:10177400684B1B6803F007033A689A420CD9654B1F
:101784003A68D2B21A70634B1B6803F007033A68D5
:101794009A4201D00123B8E07B681B6803F002037E
:1017A400002B20D07B681B6803F00403002B05D0BA
:1017B400594B9B68584A43F4E05393607B681B6819
:1017C40003F00803002B05D0534B9B68524A43F4A3
:1017D40060439360504B9B6823F0F0027B689B68E6
:1017E4004D4913438B607B681B6803F00103002B96
:1017F40044D07B685B68012B07D1474B1B6803F41B
:101804000033002B19D101237FE07B685B68022B36
:1018140003D07B685B68032B07D13F4B1B6803F045
:101824000073002B09D101236FE03B4B1B6803F0CD
:101834000203002B01D1012367E0374B9B6823F09F
:1018440003027B685B68344913438B60FFF7FCF940
:10185400F8600AE0FFF7F8F90246FB68D31A41F290
:101864008832934201D903234FE02B4B9B6803F04A
:101874000C027B685B689B009A42EBD1254B1B688A
:1018840003F007033A689A420CD2224B3A68D2B268
:101894001A70204B1B6803F007033A689A4201D080
:1018A400012332E07B681B6803F00403002B08D09B
:1018B400194B9B6823F4E0527B68DB681649134399
:1018C4008B607B681B6803F00803002B09D0124B64
:1018D4009B6823F460427B681B69DB000E49134359
:1018E4008B6000F021F802460B4B9B681B0903F048
:1018F4000F030A49CB5C22FA03F3094A1360094B2C
:101904001B681846FFF75CF9002318461037BD46DC
:1019140080BD00BF003C024000380240B4230008F0
:1019240000000020040000202DE9B04F90B000AF6B
:1019340000237B630023FB6300233B630023BB631F
:10194400594B9B6803F00C03082B0DD0082B00F2B5
:10195400A180002B02D0042B03D09BE0534BBB632C
:101964009BE0534BBB6398E04F4B5B6803F03F0332
:101974007B634D4B5B6803F48003002B28D04A4BF8
:101984005B689B0900223B627A623B6AC3F30800EE
:101994000021474B03FB01F2002300FB03F3134434
:1019A400434AA0FB0212FA620A46BA62FA6A134474
:1019B400FB627B6B0022BB61FA61D7E90623D7E99E
:1019C4000A01FEF705FC02460B461346FB6353E08F
:1019D400354B5B689B0900223B617A613B69C3F329
:1019E400080A4FF0000B52465B464FF000004FF0E0
:1019F4000001590141EAD261500102460B46B2EBA3
:101A04000A0863EB0B094FF000024FF000034FEAA2
:101A1400891343EA98634FEA8812B2EB080463EB34
:101A240009054FF000024FF00003EB0043EA547342
:101A3400E20014461D4614EB0A033B6045EB0B031E
:101A44007B604FF000024FF00003D7E900452946C0
:101A54008B02214643EA915321468A0210461946D5
:101A64007B6B0022BB60FA60D7E90223FEF7B0FB70
:101A740002460B461346FB630B4B5B681B0C03F0DF
:101A8400030301335B003B63FA6B3B6BB2FBF3F381
:101A9400BB6302E0054BBB6300BFBB6B184640371A
:101AA400BD46BDE8B08F00BF003802400024F400FA
:101AB40040787D0180B582B000AF78607B68002BF0
:101AC40001D1012341E07B6893F83D30DBB2002B68
:101AD40006D17B68002283F83C207868FEF776FF05
:101AE4007B68022283F83D207B681A687B68043394
:101AF4001946104600F088FA7B68012283F84620D4
:101B04007B68012283F83E207B68012283F83F2012
:101B14007B68012283F840207B68012283F84120FE
:101B24007B68012283F842207B68012283F84320EA
:101B34007B68012283F844207B68012283F84520D6
:101B44007B68012283F83D20002318460837BD46F0
:101B540080BD000080B485B000AF78607B6893F8E6
:101B64003D30DBB2012B01D0012344E07B6802222B
:101B740083F83D207B681B68DA687B681B6842F049
:101B84000102DA607B681B681E4A934218D07B68A6
:101B94001B68B3F1804F13D07B681B681A4A9342C9
:101BA4000ED07B681B68194A934209D07B681B6876
:101BB400174A934204D07B681B68164A934211D19A
:101BC4007B681B689B6803F00703FB60FB68062BBC
:101BD40010D07B681B681A687B681B6842F001029E
:101BE4001A6007E07B681B681A687B681B6842F010
:101BF40001021A60002318461437BD465DF8047BC1
:101C0400704700BF0000014000040040000800408D
:101C1400000C00400040014080B582B000AF786005
:101C24007B681B681B6903F00203022B22D17B68CB
:101C34001B68DB6803F00203022B1BD17B681B6863
:101C44006FF002021A617B6801221A777B681B68B5
:101C54009B6903F00303002B03D0786800F0B5F907
:101C640005E0786800F0A7F9786800F0B8F97B68B7
:101C740000221A777B681B681B6903F00403042B9A
:101C840022D17B681B68DB6803F00403042B1BD19F
:101C94007B681B686FF004021A617B6802221A7762
:101CA4007B681B689B6903F44073002B03D078683E
:101CB40000F08BF905E0786800F07DF9786800F0B1
:101CC4008EF97B6800221A777B681B681B6903F016
:101CD4000803082B22D17B681B68DB6803F0080328
:101CE400082B1BD17B681B686FF008021A617B68A4
:101CF40004221A777B681B68DB6903F00303002B5B
:101D040003D0786800F061F905E0786800F053F9D1
:101D1400786800F064F97B6800221A777B681B6896
:101D24001B6903F01003102B22D17B681B68DB684E
:101D340003F01003102B1BD17B681B686FF010029B
:101D44001A617B6808221A777B681B68DB6903F4D5
:101D54004073002B03D0786800F037F905E0786809
:101D640000F029F9786800F03AF97B6800221A77C4
:101D74007B681B681B6903F00103012B0ED17B6890
:101D84001B68DB6803F00103012B07D17B681B6828
:101D94006FF001021A617868FEF7A6FD7B681B6884
:101DA4001B6903F08003802B0ED17B681B68DB6802
:101DB40003F08003802B07D17B681B686FF08002DF
:101DC4001A61786800F0B2FA7B681B681B6903F03B
:101DD4004003402B0ED17B681B68DB6803F0400393
:101DE400402B07D17B681B686FF040021A6178684A
:101DF40000F0FFF87B681B681B6903F02003202BAD
:101E04000ED17B681B68DB6803F02003202B07D10D
:101E14007B681B686FF020021A61786800F07CFA16
:101E240000BF0837BD4680BD80B584B000AF786080
:101E340039600023FB737B6893F83C30012B01D19C
:101E44000223B4E07B68012283F83C207B680222F1
:101E540083F83D207B681B689B68BB60BB6823F0EC
:101E64007703BB60BB6823F47F43BB607B681B685C
:101E7400BA689A603B681B68B3F5005F3ED0B3F55F
:101E8400005F00F28780B3F5805F00F08680B3F5D1
:101E9400805F7FD8702B1AD0702B7BD8602B50D0EA
:101EA400602B77D8502B3CD0502B73D8402B58D074
:101EB400402B6FD8302B64D0302B6BD8202B60D0C4
:101EC400202B67D8002B5CD0102B5AD062E07B68A3
:101ED40018683B6899683B685A683B68DB6800F09F
:101EE4008DF97B681B689B68BB60BB6843F0770314
:101EF400BB607B681B68BA689A604FE07B681868AF
:101F04003B6899683B685A683B68DB6800F076F97F
:101F14007B681B689A687B681B6842F480429A60FD
:101F24003CE07B6818683B6859683B68DB681A4684
:101F340000F0EAF87B681B685021184600F043F96A
:101F44002CE07B6818683B6859683B68DB681A4674
:101F540000F009F97B681B686021184600F033F92A
:101F64001CE07B6818683B6859683B68DB681A4664
:101F740000F0CAF87B681B684021184600F023F97A
:101F84000CE07B681A683B681B681946104600F031
:101F94001AF903E00123FB7300E000BF7B68012210
:101FA40083F83D207B68002283F83C20FB7B1846A5
:101FB4001037BD4680BD80B483B000AF786000BFE9
:101FC4000C37BD465DF8047B704780B483B000AF26
:101FD400786000BF0C37BD465DF8047B704780B461
:101FE40083B000AF786000BF0C37BD465DF8047B5A
:101FF400704780B483B000AF786000BF0C37BD4633
:102004005DF8047B7047000080B485B000AF786051
:1020140039607B681B68FB607B68344A93420FD04D
:102024007B68B3F1804F0BD07B68314A934207D071
:102034007B68304A934203D07B682F4A934208D18D
:10204400FB6823F07003FB603B685B68FA6813432A
:10205400FB607B68254A93421BD07B68B3F1804FB9
:1020640017D07B68224A934213D07B68214A93425B
:102074000FD07B68204A93420BD07B681F4A93425F
:1020840007D07B681E4A934203D07B681D4A934263
:1020940008D1FB6823F44073FB603B68DB68FA6893
:1020A4001343FB60FB6823F080023B685B691343C6
:1020B400FB607B68FA681A603B689A687B68DA623E
:1020C4003B681A687B689A627B68084A934203D12A
:1020D4003B681A697B681A637B6801225A6100BFF6
:1020E4001437BD465DF8047B704700BF0000014013
:1020F4000004004000080040000C00400040014083
:10210400004401400048014080B487B000AFF8604B
:10211400B9607A60FB681B6A7B61FB681B6A23F009
:102124000102FB681A62FB689B693B613B6923F00F
:10213400F0033B617B681B013A6913433B617B6994
:1021440023F00A037B617A69BB6813437B61FB68F4
:102154003A699A61FB687A691A6200BF1C37BD4606
:102164005DF8047B704780B487B000AFF860B96055
:102174007A60FB681B6A23F01002FB681A62FB6832
:102184009B697B61FB681B6A3B617B6923F4704339
:102194007B617B681B037A6913437B613B6923F092
:1021A400A0033B61BB681B013A6913433B61FB68B5
:1021B4007A699A61FB683A691A6200BF1C37BD46A6
:1021C4005DF8047B704780B485B000AF78603960F7
:1021D4007B689B68FB60FB6823F07003FB603A68D4
:1021E400FB68134343F00703FB607B68FA689A605B
:1021F40000BF1437BD465DF8047B704780B487B0D8
:1022040000AFF860B9607A603B60FB689B687B61F3
:102214007B6923F47F437B613B681A027B681A4322
:10222400BB6813437A6913437B61FB687A699A60DC
:1022340000BF1C37BD465DF8047B704780B485B091
:1022440000AF786039607B6893F83C30012B01D192
:10225400022350E07B68012283F83C207B68022241
:1022640083F83D207B681B685B68FB607B681B68A8
:102274009B68BB60FB6823F07003FB603B681B68D2
:10228400FA681343FB607B681B68FA685A607B68D2
:102294001B681C4A934218D07B681B68B3F1804FBB
:1022A40013D07B681B68184A93420ED07B681B6866
:1022B400164A934209D07B681B68154A934204D09E
:1022C4007B681B68134A93420CD1BB6823F08003DC
:1022D400BB603B685B68BA681343BB607B681B6880
:1022E400BA689A607B68012283F83D207B680022EB
:1022F40083F83C20002318461437BD465DF8047B60
:10230400704700BF00000140000400400008004086
:10231400000C00400040014080B483B000AF7860FE
:1023240000BF0C37BD465DF8047B704780B483B0B2
:1023340000AF786000BF0C37BD465DF8047B704782
:1023440070B50D4D0D4C641BA4100026A64209D196
:102354000B4D0C4C00F020F8641BA4100026A64280
:1023640005D170BD55F8043B98470136EEE755F8A2
:10237400043B98470136F2E7CC230008CC2300083D
:10238400CC230008D023000802440346934200D122
:10239400704703F8011BF9E7F8B500BFF8BC08BCA7
:1023A4009E467047F8B500BFF8BC08BC9E4670470F
:1023B40000000000000000000102030406070809F1
:0823C40040DEFF7F0100000074
:0423CC00B90100084B
:0423D000950100086B
:0C23D4000024F4001000000001000000D4
:0400000508000B2DB7
:00000001FF
